:020000040800F2
:1000000000500020E5040008CD040008CF040008DB
:10001000D1040008D3040008D50400080000000043
:10002000000000000000000000000000D7040008ED
:10003000D904000800000000DB040008DD0400080B
:100040002D0500082D0500082D0500082D050008C8
:100050002D0500082D0500082D0500082D050008B8
:100060002D0500082D0500082D0500082D050008A8
:100070002D0500082D0500082D0500082D05000898
:100080002D0500082D0500082D0500082D05000888
:100090002D0500082D0500082D0500082D05000878
:1000A0002D0500082D0500082D0500082D05000868
:1000B0002D0500082D0500082D0500082D05000858
:1000C0002D0500082D0500082D0500082D05000848
:1000D0002D0500082D0500082D0500082D05000838
:1000E0002D0500082D0500082D0500080000000062
:1000F0000000000000000000000000000000000000
:0C01000000000000000000005FF808F1A3
:10010C0010B5054C237833B9044B13B10448AFF345
:10011C0000800123237010BD0C00002000000000A3
:10012C001013000808B5034B1BB103490348AFF388
:10013C00008008BD00000000100000201013000813
:10014C00034613F8012B002AFBD1181A013870470B
:10015C0030B595B0242200210BA801F0CBF8142265
:10016C00102500210DEB020001F0C4F800212A46F5
:10017C0001A801F0BFF8022401230AA8CDE90E352D
:10018C000A9400F083FC014608B172B6FEE70F2317
:10019C00CDE90700CDE90530099005A800F038FE3F
:1001AC0008B172B6FEE7039001A8019400F0ECFED2
:1001BC0008B172B6FEE715B030BD00002DE9F04372
:1001CC0095B00BAA1746654B03F120051446186829
:1001DC005968083303C4AB422246F7D106AA164627
:1001EC001B7823705E4B03F1100514461868596890
:1001FC00083303C4AB422246F7D11B780125237088
:10020C0000F0B4F9FFF7A4FF1022002102A801F0BE
:10021C0071F8544B03219A69534842F004029A61D5
:10022C009A694FF0000802F004020092009A9A6951
:10023C004E4C42F008029A619B69002203F00803BD
:10024C000193019B00F01CFC0323CDE90235022332
:10025C00454802A9CDE9048300F038FB4FF4E133A3
:10026C00434A2046C4E900230C23C4E90288C4E9AC
:10027C000538C4F81080C4F81C8000F099FF08B150
:10028C0072B6FEE74FF46028DFF8E8903A4BCDE900
:10029C0002000490C9F8080089F80C0089F81400D1
:1002AC00C9F804004846C9F80030C9F81C80C9F8E0
:1002BC00105000F035FA08B172B6FEE7CDE9020530
:1002CC00049002A9484600F087F908B172B6FEE71F
:1002DC00DFF8A8902A4BCDE902000490C9F8080079
:1002EC0089F80C0089F81400C9F804004846C9F8CC
:1002FC000030C9F81C80C9F8105000F011FA08B190
:10030C0072B6FEE7049002A94846CDE9025500F00A
:10031C0063F908B172B6FEE73846FFF711FF6423A4
:10032C0082B23946204600F072FF0F4D3046FFF77F
:10033C0007FF6423314682B2204600F068FF012299
:10034C002846114600F09CFB28460122022100F0B1
:10035C0097FB642000F02EF9E8E700BF2813000893
:10036C004913000800100240000C014088000020D6
:10037C0000380140280000200024014058000020D3
:10038C00002801400A4B82B09A6942F001029A613E
:10039C009A6902F001020092009ADA6942F08052E6
:1003AC00DA61DB6903F080530193019B02B0704763
:1003BC0000100240102210B5044688B00DEB02006C
:1003CC00002100F097FF23681B4A93421CD11B4B62
:1003DC009A6942F400729A619A6902F4007200926E
:1003EC00009A9A6942F004029A619B6903F0040333
:1003FC000193019B012304930323114804A9059342
:10040C0000F064FA08B010BD0E4A9342FAD10B4BBF
:10041C009A6942F480629A619A6902F4806202924B
:10042C00029A9A6942F004029A619B6903F00403F0
:10043C000393039B0223DEE70024014000100240DB
:10044C00000801400028014010B5044686B0102277
:10045C00002102A800F04EFF2268174B9A4228D1C7
:10046C0003F558439A69154842F480429A619A6997
:10047C0002A902F480420092009A9A6942F00402A6
:10048C009A619B694FF4007203F004030193019B82
:10049C000223CDE902230323059300F017FA4FF44E
:1004AC00806100230548CDE9021302A9049300F0F2
:1004BC000DFA06B010BD00BF003801400008014025
:1004CC00FEE7FEE7FEE7FEE7FEE770477047704782
:1004DC0000F05EB870470000FFF7FCFF0B480C49BA
:1004EC000C4A002302E0D458C4500433C4188C4284
:1004FC00F9D3094A094C002301E013600432A242EB
:10050C00FBD300F0D3FEFFF759FE7047000000202C
:10051C000C0000208C1300080C000020D4000020DC
:10052C00FEE7000038B50E4B054618784FF47A7389
:10053C00B3FBF0F30B4A1068B0FBF3F000F0B2F928
:10054C00044658B90F2D09D8024629464FF0FF3002
:10055C0000F076F92046044B1D6038BD0120FCE705
:10056C00040000200000002008000020074A08B505
:10057C001368032043F01003136000F04FF90F20B1
:10058C00FFF7D0FFFFF7FEFE002008BD0020024061
:10059C00034A044B11681B780B441360704700BF6F
:1005AC00D000002004000020014B1868704700BFE9
:1005BC00D000002038B50446FFF7F6FF0546631C53
:1005CC001EBF044B1B78E418FFF7EEFF431BA3423E
:1005DC00FAD338BD04000020002373B5019390F8C2
:1005EC0024300446012B6CD0012380F824304D6854
:1005FC000268062D086805EB850322D81F26556B6B
:10060C00053B9E4025EA060500FA03F32B43536392
:10061C0009288B6800EB40054FF0070129D9D668F3
:10062C001E3DA94026EA0101AB400B43D360A0F16B
:10063C001003012B25D90020002384F8243002B0AC
:10064C0070BD0C2D4FF01F0509D8166B233B9D4038
:10065C0026EA050500FA03F32B431363D8E7D66AA1
:10066C00413B9D4026EA050500FA03F32B43D36278
:10067C00CEE71069A94020EA0101AB400B4313619E
:10068C00D9E7114B9A4216D193681B02D3D49368C5
:10069C00102843F400039360CDD10C4B0C4A1B681B
:1006AC00B3FBF2F30A2253430193019B002BC2D0FC
:1006BC00019B013BF8E7A36A012043F02003A362EE
:1006CC00BAE70220BBE700BF002401400000002075
:1006DC0040420F0038B5036804469A68D10701D42C
:1006EC00002038BD9A6822F001029A60FFF75CFF87
:1006FC00054623689B68DB07F2D5FFF755FF401BC7
:10070C000228F6D923689B68DA07F2D5A36A012080
:10071C0043F01003A362E36A43F00103E362E0E7F2
:10072C00F8B5044600286ED0836A23B9C36280F8FA
:10073C002430FFF73FFE2046FFF7CCFFA36A13F0EF
:10074C00100362D1002860D1A26AE569616822F4C5
:10075C00885222F0020242F002022943A568A262EA
:10076C00227BB5F5807F41EA420137D0012D14BFC1
:10077C0000274FF48077267D012E06D182BBA2691B
:10078C00013A47EA423646F400672268B5F5807FA5
:10079C00566826F4694646EA0706566097681D4E69
:1007AC0006EA070646EA0106966001D0012D02D141
:1007BC002369013B1B05D56A25F470052B43D362D5
:1007CC009268154B1340994213D10023E362A36A3C
:1007DC0023F0030343F00103A362F8BD2F46CAE7DD
:1007EC00A26A42F02002A262E26A42F00102E262D4
:1007FC00CBE7A36A23F0120343F01003A362E36A6E
:10080C0043F00103E3620120E7E7A36A43F010031E
:10081C00A362F8E7FDF7E1FFFE0E1FFF0749030295
:10082C00CA6803F4E06322F4E0621204120C13436E
:10083C0043F0BF6343F40033CB60704700ED00E03E
:10084C00164B30B5DC68C4F30224C4F10703251D34
:10085C00042B28BF0423062D4FF0FF3598BF00242E
:10086C0005FA03F388BF033C21EA0303A34005FA0E
:10087C0004F422EA0402002843EA0203ACBF00F1AC
:10088C006040074A4FEA0313DBB2ABBF00F561408F
:10089C0000F00F0080F80033135430BD00ED00E081
:1008AC0014ED00E00138B0F1807F0BD24FF0E02363
:1008BC00F021054A586182F8231000200722986124
:1008CC001A6170470120704700ED00E02DE9F74FE9
:1008DC0000221646644F654BDFF894C1DFF894E1B3
:1008EC000D6835FA06F402D103B0BDE8F08F4FF075
:1008FC00010808FA06F805EA080438EA05057BD170
:10090C004D68032D07D8013D022D00F28880DFE8E9
:10091C0005F0969BA100122D00F099806ED8112D38
:10092C0000F08F80FF2C98BF82464FF00F0988BFD4
:10093C0000F1040A4FEA8605DAF8008088BF203DF2
:10094C0009FA05FB28EA0B0802FA05F548EA050541
:10095C00CAF80050D1F804A01AF0805F4CD0BD69E1
:10096C0026F0030845F00105BD61BD6908F180481A
:10097C0005F00105019508F5803806F0030B019D83
:10098C004FEA8B0BD8F8085009FA0BF925EA09093C
:10099C00394DA84262D005F58065A84260D005F5B6
:1009AC008065A8425ED005F58065A8420CBF032582
:1009BC00042505FA0BF545EA0905C8F808509D68A9
:1009CC001AF4801F14BF2543A5439D60DD681AF4FB
:1009DC00001F14BF2543A543DD605D681AF4003F7A
:1009EC0014BF2543A5435D601D681AF4803F14BFF6
:1009FC002C4325EA04041C60013671E7DFF87C9077
:100A0C004D450CD017D8A9F580194D4507D009F5DF
:100A1C0070294D4503D0A9F580194D4582D18A68BE
:100A2C00D2B1012A08BFC0F810804FF0080218BFDD
:100A3C00C0F8148076E76545F1D07545EEE7CA68D5
:100A4C0070E7CA6804326DE7CA6808326AE7CA6898
:100A5C000C3267E7002265E7042263E70025A8E76C
:100A6C000125A6E70225A4E700100240000401407E
:100A7C00000031100000321000080140000022106C
:100A8C000AB1016170470904FBE700002DE9F3414D
:100A9C00054638B30368DB0710D42B689F075ED478
:100AAC002B68190700F195802B685A0700F1C1805B
:100ABC00E869002840F02C81002029E0904C636804
:100ACC0003F00C03042B07D0636803F00C03082B12
:100ADC000AD16368DE0307D523689C03DDD56B68F8
:100AEC00002BDAD1012013E06B68B3F5803F12D1F3
:100AFC00236843F480332360FFF756FD06462368D2
:100B0C009803CAD4FFF750FD801B6428F7D9032043
:100B1C0002B0BDE8F0819BB9236823F480332360D5
:100B2C00236823F480232360FFF73EFD06462368E9
:100B3C009903B2D5FFF738FD801B6428F7D9E6E797
:100B4C00B3F5A02F236803D143F480232360CFE7B0
:100B5C0023F480332360236823F48023CBE7684C91
:100B6C00636813F00C0F07D0636803F00C03082BB9
:100B7C0010D16368DA030DD423689B0702D52B6967
:100B8C00012BAFD123686A6923F0F80343EAC2034F
:100B9C00236085E72A695B4B6AB101221A60FFF773
:100BAC0003FD064623689F07ECD4FFF7FDFC801B72
:100BBC000228F7D9ABE71A60FFF7F6FC0646236864
:100BCC0098077FF56DAFFFF7EFFC801B0228F6D975
:100BDC009DE7AA694A4E4B4BE2B10122C3F880242F
:100BEC00FFF7E2FC0446736A9B070DD54FF4FA52EB
:100BFC00454B1B68B3FBF2F3019300BF019B5A1EDC
:100C0C000192002BF9D14FE7FFF7CEFC001B022815
:100C1C00E9D97CE7C3F88024FFF7C6FC0446736A65
:100C2C009F077FF541AFFFF7BFFC001B0228F6D9E9
:100C3C006DE7334CE369D80024D40127E36943F012
:100C4C008053E361E36903F080530093009B2F4EC4
:100C5C003368D90518D5EB68012B26D1236A43F0EC
:100C6C0001032362FFF7A0FC41F288380646236A91
:100C7C009B073FD5002F3FF41BAFE36923F0805354
:100C8C00E36115E70027E2E7336843F480733360D0
:100C9C00FFF78AFC80463368DA05DCD4FFF784FC66
:100CAC00A0EB08006428F6D931E7ABB9236A41F20E
:100CBC00883823F001032362236A23F004032362A0
:100CCC00FFF772FC0646236A9807D3D5FFF76CFC36
:100CDC00801B4045F7D91AE7052B236A03D143F053
:100CEC0004032362BAE723F001032362236A23F08F
:100CFC000403B6E7FFF758FC801B4045B7D906E75D
:100D0C000010024000004242000000200070004031
:100D1C002A4C636803F00C03082B3ED00022284BAE
:100D2C0002281A662CD1FFF73FFC0646236899016E
:100D3C0020D42B6AB3F5803F05D16268A96822F4F0
:100D4C0000320A436260696A62680B4322F47412CF
:100D5C001343012263601A4B1A66FFF725FC054604
:100D6C0023689A013FF5A8AEFFF71EFC401B022832
:100D7C00F6D9CCE6FFF718FC801B0228D6D9C6E6BC
:100D8C00FFF712FC054623689B017FF595AEFFF734
:100D9C000BFC401B0228F6D9B9E601283FF4B8AE8B
:100DAC0063682A6A03F4803191427FF49BAE6A6ACD
:100DBC0003F4701393423FF47FAE93E600100240AD
:100DCC00000042420D4A536803F00C01082912D16D
:100DDC000B48C3F38341DB03405C09D55368094AD4
:100DEC00C3F340435043084AD35CB0FBF3F0704765
:100DFC00064B584370470348704700BF0010024031
:100E0C007213000800127A008213000800093D00DA
:100E1C002DE9F0410D46044610B90120BDE8F081E2
:100E2C00444A136803F007038B4228D321688E07CA
:100E3C0030D4CA0743D43F4A136803F00703AB42CC
:100E4C0065D822683C4D12F0040F6CD1130706D5FF
:100E5C006B68226923F4605343EAC2036B60FFF7AB
:100E6C00B1FF6B68354AC3F30313D35CD840344BE2
:100E7C001860344B1868FFF755FB0020CEE7136859
:100E8C0023F007030B431360136803F007038B4233
:100E9C00C3D1CBE7284B11F0040F1EBF5A6842F4A4
:100EAC00E0625A60080742BF5A6842F460525A60C6
:100EBC005A68A06822F0F00202435A60B9E76268EF
:100ECC001D4E012A33681AD113F4003FA5D0736864
:100EDC0041F2883823F0030313437360FFF764FB7C
:100EEC0007467368626803F00C03B3EB820FA2D061
:100EFC00FFF75AFBC01B4045F3D903208EE7022AAB
:100F0C0002D113F0007FE1E713F0020FDEE7136864
:100F1C0023F007032B431360136803F00703AB4262
:100F2C007FF47BAF8DE76B68E16823F4E0630B43E0
:100F3C006B608BE700200240001002405A1300083F
:100F4C000000002008000020044B054A5B68C3F336
:100F5C000223D35C034A1068D8407047001002404B
:100F6C006A13000800000020044B054A5B68C3F3B9
:100F7C00C223D35C034A1068D8407047001002406B
:100F8C006A1300080000002003682DE9F341D9071B
:100F9C00054620D5364CE369DA0032D40126E369E4
:100FAC0043F08053E361E36903F080530193019BA9
:100FBC00304F3B68DB0526D5236A13F4407336D1DA
:100FCC00236A6A6823F44073134323621EB1E369F6
:100FDC0023F08053E3612868830706D52449AB6866
:100FEC004A6822F440421A434A6010F010001BD0A9
:100FFC001F4AE9685368002023F480030B435360B5
:10100C0012E00026D4E73B6843F480733B60FFF7A3
:10101C00CBFA80463B68D805CED4FFF7C5FAA0EBD7
:10102C0008006428F6D9032002B0BDE8F0816A6894
:10103C0002F440729A42C3D001200F4A236AC2F8CC
:10104C004004002023F44071C2F840042162D90707
:10105C00B6D5FFF7A9FA41F288380746236A9A07F2
:10106C00AED4FFF7A1FAC01B4045F7D9DBE700BFB0
:10107C00001002400070004000004242026802F181
:10108C000C0353E8003F23F490730C3242E8003118
:10109C0002680029F2D102F1140353E8003F23F057
:1010AC00010302F1140C4CE800310029F3D1036B5D
:1010BC00012B0BD102F10C0353E8003F23F010037A
:1010CC0002F10C0C4CE800310029F3D1202380F8FC
:1010DC00423000230363704710B504460368C168AF
:1010EC001A6922F440520A431A6182680069D9686D
:1010FC000243606921F4B05121F00C0102430A4310
:10110C00DA605A69A16922F440720A435A610E4AA4
:10111C00934215D1FFF728FF1923434362682068D7
:10112C009200B3FBF2F36422B3FBF2F102FB113336
:10113C001B013233B3FBF2F303EB0113836010BDDD
:10114C00FFF702FFE8E700BF00380140F7B505469E
:10115C000C4617461E462A68136834EA030301D16D
:10116C00002021E0701CF7D0FFF71EFAC01B86424E
:10117C001CD3DEB12B68DA685107ECD5802CEAD091
:10118C00402CE8D01A681207E5D5002401941A689F
:10119C00284601925B680193019BFFF76FFF0823C0
:1011AC0001206B6485F8404003B0F0BD0320FBE7E1
:1011BC0010B5044648B390F8413003F0FF021BB958
:1011CC0080F84020FFF740F92423226884F841304E
:1011DC00D368204623F40053D360FFF77DFF2368C8
:1011EC0000201A6922F490421A615A6922F02A02EC
:1011FC005A61DA6842F40052DA602023606484F8A1
:10120C00413084F84230606310BD0120FCE72DE9C9
:10121C00F843994690F841300446202B0E46174669
:10122C003FD100293FD0002A3DD021230025456421
:10123C0080F84130FFF7B8F9A3688046B3F5805FBA
:10124C00A784E78403D123690BB935461E46E38C8A
:10125C009BB25BB94B46424640212046FFF776FFD6
:10126C00202384F8413058B9BDE8F8834B464246F8
:10127C0080212046FFF76AFF20B1202384F84130FB
:10128C000320F1E722684EB935F8023BC3F308039B
:10129C005360E18C013989B2E184D8E716F8013B3F
:1012AC00F6E70220E0E70120DEE7000070B500263B
:1012BC000C4D0D4C641BA410A64209D100F022F871
:1012CC0000260A4D0A4C641BA410A64205D170BD21
:1012DC0055F8043B98470136EEE755F8043B984720
:1012EC000136F2E784130008841300088413000805
:1012FC008813000803460244934200D1704703F858
:10130C00011BF9E7F8B500BFF8BC08BC9E46704756
:0C131C00F8B500BFF8BC08BC9E46704746
:101328004155544F4D4154494320484541444C4947
:1013380047485420434F4E54524F4C4C45520D0A87
:101348000048454144204C49474854204F46460DE3
:101358000A00000000000000000001020304060764
:10136800080900000000010203040203040506073F
:0C13780008090A0B0C0D0E0F10100102EA
:04138400310100082B
:041388000D0100084B
:0C138C0000127A000100000010000000B8
:04000005080004E506
:00000001FF
